{
  "_format": "hh-sol-artifact-1",
  "contractName": "Drive",
  "sourceName": "contracts/Drive.sol",
  "abi": [
    {
      "inputs": [],
      "stateMutability": "nonpayable",
      "type": "constructor"
    },
    {
      "anonymous": false,
      "inputs": [
        {
          "indexed": false,
          "internalType": "uint256",
          "name": "index",
          "type": "uint256"
        }
      ],
      "name": "deleted",
      "type": "event"
    },
    {
      "anonymous": false,
      "inputs": [
        {
          "indexed": false,
          "internalType": "string",
          "name": "cid",
          "type": "string"
        },
        {
          "indexed": false,
          "internalType": "string",
          "name": "fileName",
          "type": "string"
        },
        {
          "indexed": false,
          "internalType": "uint256",
          "name": "timestamp",
          "type": "uint256"
        }
      ],
      "name": "uploaded",
      "type": "event"
    },
    {
      "inputs": [
        {
          "internalType": "address",
          "name": "",
          "type": "address"
        }
      ],
      "name": "addressToLastUsedPosition",
      "outputs": [
        {
          "internalType": "uint256",
          "name": "",
          "type": "uint256"
        }
      ],
      "stateMutability": "view",
      "type": "function"
    },
    {
      "inputs": [
        {
          "internalType": "address",
          "name": "",
          "type": "address"
        },
        {
          "internalType": "uint256",
          "name": "",
          "type": "uint256"
        }
      ],
      "name": "files",
      "outputs": [
        {
          "internalType": "address",
          "name": "owner",
          "type": "address"
        },
        {
          "internalType": "string",
          "name": "cid",
          "type": "string"
        },
        {
          "internalType": "string",
          "name": "fileName",
          "type": "string"
        },
        {
          "internalType": "uint256",
          "name": "fileSize",
          "type": "uint256"
        },
        {
          "internalType": "uint256",
          "name": "timestamp",
          "type": "uint256"
        }
      ],
      "stateMutability": "view",
      "type": "function"
    },
    {
      "inputs": [],
      "name": "getAllFiles",
      "outputs": [
        {
          "components": [
            {
              "internalType": "address",
              "name": "owner",
              "type": "address"
            },
            {
              "internalType": "string",
              "name": "cid",
              "type": "string"
            },
            {
              "internalType": "string",
              "name": "fileName",
              "type": "string"
            },
            {
              "internalType": "uint256",
              "name": "fileSize",
              "type": "uint256"
            },
            {
              "internalType": "uint256",
              "name": "timestamp",
              "type": "uint256"
            }
          ],
          "internalType": "struct Drive.File[]",
          "name": "",
          "type": "tuple[]"
        }
      ],
      "stateMutability": "view",
      "type": "function"
    },
    {
      "inputs": [],
      "name": "name",
      "outputs": [
        {
          "internalType": "string",
          "name": "",
          "type": "string"
        }
      ],
      "stateMutability": "view",
      "type": "function"
    },
    {
      "inputs": [],
      "name": "symbol",
      "outputs": [
        {
          "internalType": "string",
          "name": "",
          "type": "string"
        }
      ],
      "stateMutability": "view",
      "type": "function"
    },
    {
      "inputs": [
        {
          "internalType": "uint256",
          "name": "_index",
          "type": "uint256"
        }
      ],
      "name": "terminate",
      "outputs": [],
      "stateMutability": "nonpayable",
      "type": "function"
    },
    {
      "inputs": [
        {
          "internalType": "string",
          "name": "_fileName",
          "type": "string"
        },
        {
          "internalType": "uint256",
          "name": "_fileSize",
          "type": "uint256"
        },
        {
          "internalType": "string",
          "name": "_cid",
          "type": "string"
        }
      ],
      "name": "upload",
      "outputs": [],
      "stateMutability": "nonpayable",
      "type": "function"
    }
  ],
  "bytecode": "0x60806040526040518060400160405280600881526020017f4465204472697665000000000000000000000000000000000000000000000000815250600090816200004a919062000320565b506040518060400160405280600281526020017f44440000000000000000000000000000000000000000000000000000000000008152506001908162000091919062000320565b503480156200009f57600080fd5b5062000407565b600081519050919050565b7f4e487b7100000000000000000000000000000000000000000000000000000000600052604160045260246000fd5b7f4e487b7100000000000000000000000000000000000000000000000000000000600052602260045260246000fd5b600060028204905060018216806200012857607f821691505b6020821081036200013e576200013d620000e0565b5b50919050565b60008190508160005260206000209050919050565b60006020601f8301049050919050565b600082821b905092915050565b600060088302620001a87fffffffffffffffffffffffffffffffffffffffffffffffffffffffffffffffff8262000169565b620001b4868362000169565b95508019841693508086168417925050509392505050565b6000819050919050565b6000819050919050565b600062000201620001fb620001f584620001cc565b620001d6565b620001cc565b9050919050565b6000819050919050565b6200021d83620001e0565b620002356200022c8262000208565b84845462000176565b825550505050565b600090565b6200024c6200023d565b6200025981848462000212565b505050565b5b8181101562000281576200027560008262000242565b6001810190506200025f565b5050565b601f821115620002d0576200029a8162000144565b620002a58462000159565b81016020851015620002b5578190505b620002cd620002c48562000159565b8301826200025e565b50505b505050565b600082821c905092915050565b6000620002f560001984600802620002d5565b1980831691505092915050565b6000620003108383620002e2565b9150826002028217905092915050565b6200032b82620000a6565b67ffffffffffffffff811115620003475762000346620000b1565b5b6200035382546200010f565b6200036082828562000285565b600060209050601f83116001811462000398576000841562000383578287015190505b6200038f858262000302565b865550620003ff565b601f198416620003a88662000144565b60005b82811015620003d257848901518255600182019150602085019450602081019050620003ab565b86831015620003f25784890151620003ee601f891682620002e2565b8355505b6001600288020188555050505b505050505050565b611b4280620004176000396000f3fe608060405234801561001057600080fd5b506004361061007d5760003560e01c80635e158cf81161005b5780635e158cf8146101045780637a828b281461012057806395d89b411461013c578063ff24b5d51461015a5761007d565b806306fdde03146100825780630bb8ff9b146100a05780632ba6978e146100d0575b600080fd5b61008a610178565b6040516100979190610f00565b60405180910390f35b6100ba60048036038101906100b59190610f94565b610206565b6040516100c79190610fda565b60405180910390f35b6100ea60048036038101906100e59190611021565b61021e565b6040516100fb959493929190611070565b60405180910390f35b61011e60048036038101906101199190611206565b6103a1565b005b61013a60048036038101906101359190611291565b6105d8565b005b6101446109ab565b6040516101519190610f00565b60405180910390f35b610162610a39565b60405161016f9190611465565b60405180910390f35b60008054610185906114b6565b80601f01602080910402602001604051908101604052809291908181526020018280546101b1906114b6565b80156101fe5780601f106101d3576101008083540402835291602001916101fe565b820191906000526020600020905b8154815290600101906020018083116101e157829003601f168201915b505050505081565b60036020528060005260406000206000915090505481565b6002602052816000526040600020818154811061023a57600080fd5b9060005260206000209060050201600091509150508060000160009054906101000a900473ffffffffffffffffffffffffffffffffffffffff1690806001018054610284906114b6565b80601f01602080910402602001604051908101604052809291908181526020018280546102b0906114b6565b80156102fd5780601f106102d2576101008083540402835291602001916102fd565b820191906000526020600020905b8154815290600101906020018083116102e057829003601f168201915b505050505090806002018054610312906114b6565b80601f016020809104026020016040519081016040528092919081815260200182805461033e906114b6565b801561038b5780601f106103605761010080835404028352916020019161038b565b820191906000526020600020905b81548152906001019060200180831161036e57829003601f168201915b5050505050908060030154908060040154905085565b600182116103e4576040517f08c379a00000000000000000000000000000000000000000000000000000000081526004016103db90611559565b60405180910390fd5b6103ec610c63565b838160400181905250828160600181815250504281608001818152505033816000019073ffffffffffffffffffffffffffffffffffffffff16908173ffffffffffffffffffffffffffffffffffffffff1681525050818160200181905250600360003373ffffffffffffffffffffffffffffffffffffffff1673ffffffffffffffffffffffffffffffffffffffff16815260200190815260200160002060008154610496906115a8565b91905081905550600260003373ffffffffffffffffffffffffffffffffffffffff1673ffffffffffffffffffffffffffffffffffffffff16815260200190815260200160002081908060018154018082558091505060019003906000526020600020906005020160009091909190915060008201518160000160006101000a81548173ffffffffffffffffffffffffffffffffffffffff021916908373ffffffffffffffffffffffffffffffffffffffff1602179055506020820151816001019081610562919061179c565b506040820151816002019081610578919061179c565b50606082015181600301556080820151816004015550507fc727a3f331098d23d159d20e15ad147169f4fbc4ace4e1e5a633b1cdd258559981602001518583608001516040516105ca9392919061186e565b60405180910390a150505050565b6000600360003373ffffffffffffffffffffffffffffffffffffffff1673ffffffffffffffffffffffffffffffffffffffff16815260200190815260200160002054905080821061065e576040517f08c379a0000000000000000000000000000000000000000000000000000000008152600401610655906118ff565b60405180910390fd5b6000600260003373ffffffffffffffffffffffffffffffffffffffff1673ffffffffffffffffffffffffffffffffffffffff168152602001908152602001600020905060008390505b6001836106b4919061191f565b8110156107c457816001826106c99190611953565b815481106106da576106d9611987565b5b90600052602060002090600502018282815481106106fb576106fa611987565b5b90600052602060002090600502016000820160009054906101000a900473ffffffffffffffffffffffffffffffffffffffff168160000160006101000a81548173ffffffffffffffffffffffffffffffffffffffff021916908373ffffffffffffffffffffffffffffffffffffffff1602179055506001820181600101908161078491906119cc565b506002820181600201908161079991906119cc565b50600382015481600301556004820154816004015590505080806107bc906115a8565b9150506106a7565b50806001836107d3919061191f565b815481106107e4576107e3611987565b5b9060005260206000209060050201600080820160006101000a81549073ffffffffffffffffffffffffffffffffffffffff021916905560018201600061082a9190610ca8565b60028201600061083a9190610ca8565b6003820160009055600482016000905550508080548061085d5761085c611ab4565b5b6001900381819060005260206000209060050201600080820160006101000a81549073ffffffffffffffffffffffffffffffffffffffff02191690556001820160006108a99190610ca8565b6002820160006108b99190610ca8565b6003820160009055600482016000905550509055600360003373ffffffffffffffffffffffffffffffffffffffff1673ffffffffffffffffffffffffffffffffffffffff1681526020019081526020016000206000815461091990611ae3565b9190508190555080600260003373ffffffffffffffffffffffffffffffffffffffff1673ffffffffffffffffffffffffffffffffffffffff16815260200190815260200160002090805461096e929190610ce8565b507f3f20f7f8d003d03819949ccf51a3e83de9cece583360970bfd1824d5ebcc01538360405161099e9190610fda565b60405180910390a1505050565b600180546109b8906114b6565b80601f01602080910402602001604051908101604052809291908181526020018280546109e4906114b6565b8015610a315780601f10610a0657610100808354040283529160200191610a31565b820191906000526020600020905b815481529060010190602001808311610a1457829003601f168201915b505050505081565b6060600260003373ffffffffffffffffffffffffffffffffffffffff1673ffffffffffffffffffffffffffffffffffffffff168152602001908152602001600020805480602002602001604051908101604052809291908181526020016000905b82821015610c5a57838290600052602060002090600502016040518060a00160405290816000820160009054906101000a900473ffffffffffffffffffffffffffffffffffffffff1673ffffffffffffffffffffffffffffffffffffffff1673ffffffffffffffffffffffffffffffffffffffff168152602001600182018054610b23906114b6565b80601f0160208091040260200160405190810160405280929190818152602001828054610b4f906114b6565b8015610b9c5780601f10610b7157610100808354040283529160200191610b9c565b820191906000526020600020905b815481529060010190602001808311610b7f57829003601f168201915b50505050508152602001600282018054610bb5906114b6565b80601f0160208091040260200160405190810160405280929190818152602001828054610be1906114b6565b8015610c2e5780601f10610c0357610100808354040283529160200191610c2e565b820191906000526020600020905b815481529060010190602001808311610c1157829003601f168201915b505050505081526020016003820154815260200160048201548152505081526020019060010190610a9a565b50505050905090565b6040518060a00160405280600073ffffffffffffffffffffffffffffffffffffffff168152602001606081526020016060815260200160008152602001600081525090565b508054610cb4906114b6565b6000825580601f10610cc65750610ce5565b601f016020900490600052602060002090810190610ce49190610de5565b5b50565b828054828255906000526020600020906005028101928215610dd45760005260206000209160050282015b82811115610dd35782826000820160009054906101000a900473ffffffffffffffffffffffffffffffffffffffff168160000160006101000a81548173ffffffffffffffffffffffffffffffffffffffff021916908373ffffffffffffffffffffffffffffffffffffffff16021790555060018201816001019081610d9891906119cc565b5060028201816002019081610dad91906119cc565b506003820154816003015560048201548160040155505091600501919060050190610d13565b5b509050610de19190610e02565b5090565b5b80821115610dfe576000816000905550600101610de6565b5090565b5b80821115610e6c57600080820160006101000a81549073ffffffffffffffffffffffffffffffffffffffff0219169055600182016000610e439190610ca8565b600282016000610e539190610ca8565b6003820160009055600482016000905550600501610e03565b5090565b600081519050919050565b600082825260208201905092915050565b60005b83811015610eaa578082015181840152602081019050610e8f565b60008484015250505050565b6000601f19601f8301169050919050565b6000610ed282610e70565b610edc8185610e7b565b9350610eec818560208601610e8c565b610ef581610eb6565b840191505092915050565b60006020820190508181036000830152610f1a8184610ec7565b905092915050565b6000604051905090565b600080fd5b600080fd5b600073ffffffffffffffffffffffffffffffffffffffff82169050919050565b6000610f6182610f36565b9050919050565b610f7181610f56565b8114610f7c57600080fd5b50565b600081359050610f8e81610f68565b92915050565b600060208284031215610faa57610fa9610f2c565b5b6000610fb884828501610f7f565b91505092915050565b6000819050919050565b610fd481610fc1565b82525050565b6000602082019050610fef6000830184610fcb565b92915050565b610ffe81610fc1565b811461100957600080fd5b50565b60008135905061101b81610ff5565b92915050565b6000806040838503121561103857611037610f2c565b5b600061104685828601610f7f565b92505060206110578582860161100c565b9150509250929050565b61106a81610f56565b82525050565b600060a0820190506110856000830188611061565b81810360208301526110978187610ec7565b905081810360408301526110ab8186610ec7565b90506110ba6060830185610fcb565b6110c76080830184610fcb565b9695505050505050565b600080fd5b600080fd5b7f4e487b7100000000000000000000000000000000000000000000000000000000600052604160045260246000fd5b61111382610eb6565b810181811067ffffffffffffffff82111715611132576111316110db565b5b80604052505050565b6000611145610f22565b9050611151828261110a565b919050565b600067ffffffffffffffff821115611171576111706110db565b5b61117a82610eb6565b9050602081019050919050565b82818337600083830152505050565b60006111a96111a484611156565b61113b565b9050828152602081018484840111156111c5576111c46110d6565b5b6111d0848285611187565b509392505050565b600082601f8301126111ed576111ec6110d1565b5b81356111fd848260208601611196565b91505092915050565b60008060006060848603121561121f5761121e610f2c565b5b600084013567ffffffffffffffff81111561123d5761123c610f31565b5b611249868287016111d8565b935050602061125a8682870161100c565b925050604084013567ffffffffffffffff81111561127b5761127a610f31565b5b611287868287016111d8565b9150509250925092565b6000602082840312156112a7576112a6610f2c565b5b60006112b58482850161100c565b91505092915050565b600081519050919050565b600082825260208201905092915050565b6000819050602082019050919050565b6112f381610f56565b82525050565b600082825260208201905092915050565b600061131582610e70565b61131f81856112f9565b935061132f818560208601610e8c565b61133881610eb6565b840191505092915050565b61134c81610fc1565b82525050565b600060a08301600083015161136a60008601826112ea565b5060208301518482036020860152611382828261130a565b9150506040830151848203604086015261139c828261130a565b91505060608301516113b16060860182611343565b5060808301516113c46080860182611343565b508091505092915050565b60006113db8383611352565b905092915050565b6000602082019050919050565b60006113fb826112be565b61140581856112c9565b935083602082028501611417856112da565b8060005b85811015611453578484038952815161143485826113cf565b945061143f836113e3565b925060208a0199505060018101905061141b565b50829750879550505050505092915050565b6000602082019050818103600083015261147f81846113f0565b905092915050565b7f4e487b7100000000000000000000000000000000000000000000000000000000600052602260045260246000fd5b600060028204905060018216806114ce57607f821691505b6020821081036114e1576114e0611487565b5b50919050565b7f46696c652073697a652073686f756c64206265206d6f7265207468616e20314b60008201527f4200000000000000000000000000000000000000000000000000000000000000602082015250565b6000611543602183610e7b565b915061154e826114e7565b604082019050919050565b6000602082019050818103600083015261157281611536565b9050919050565b7f4e487b7100000000000000000000000000000000000000000000000000000000600052601160045260246000fd5b60006115b382610fc1565b91507fffffffffffffffffffffffffffffffffffffffffffffffffffffffffffffffff82036115e5576115e4611579565b5b600182019050919050565b60008190508160005260206000209050919050565b60006020601f8301049050919050565b600082821b905092915050565b6000600883026116527fffffffffffffffffffffffffffffffffffffffffffffffffffffffffffffffff82611615565b61165c8683611615565b95508019841693508086168417925050509392505050565b6000819050919050565b600061169961169461168f84610fc1565b611674565b610fc1565b9050919050565b6000819050919050565b6116b38361167e565b6116c76116bf826116a0565b848454611622565b825550505050565b600090565b6116dc6116cf565b6116e78184846116aa565b505050565b5b8181101561170b576117006000826116d4565b6001810190506116ed565b5050565b601f82111561175057611721816115f0565b61172a84611605565b81016020851015611739578190505b61174d61174585611605565b8301826116ec565b50505b505050565b600082821c905092915050565b600061177360001984600802611755565b1980831691505092915050565b600061178c8383611762565b9150826002028217905092915050565b6117a582610e70565b67ffffffffffffffff8111156117be576117bd6110db565b5b6117c882546114b6565b6117d382828561170f565b600060209050601f83116001811461180657600084156117f4578287015190505b6117fe8582611780565b865550611866565b601f198416611814866115f0565b60005b8281101561183c57848901518255600182019150602085019450602081019050611817565b868310156118595784890151611855601f891682611762565b8355505b6001600288020188555050505b505050505050565b600060608201905081810360008301526118888186610ec7565b9050818103602083015261189c8185610ec7565b90506118ab6040830184610fcb565b949350505050565b7f496e646578206f7574206f6620626f756e640000000000000000000000000000600082015250565b60006118e9601283610e7b565b91506118f4826118b3565b602082019050919050565b60006020820190508181036000830152611918816118dc565b9050919050565b600061192a82610fc1565b915061193583610fc1565b925082820390508181111561194d5761194c611579565b5b92915050565b600061195e82610fc1565b915061196983610fc1565b925082820190508082111561198157611980611579565b5b92915050565b7f4e487b7100000000000000000000000000000000000000000000000000000000600052603260045260246000fd5b6000815490506119c5816114b6565b9050919050565b8181036119da575050611ab2565b6119e3826119b6565b67ffffffffffffffff8111156119fc576119fb6110db565b5b611a0682546114b6565b611a1182828561170f565b6000601f831160018114611a405760008415611a2e578287015490505b611a388582611780565b865550611aab565b601f198416611a4e876115f0565b9650611a59866115f0565b60005b82811015611a8157848901548255600182019150600185019450602081019050611a5c565b86831015611a9e5784890154611a9a601f891682611762565b8355505b6001600288020188555050505b5050505050505b565b7f4e487b7100000000000000000000000000000000000000000000000000000000600052603160045260246000fd5b6000611aee82610fc1565b915060008203611b0157611b00611579565b5b60018203905091905056fea26469706673582212205a23c5f45473a4a13d3e78f768408b7f611ec19017159eadc7ad53e2ea4172ba64736f6c63430008120033",
  "linkReferences": {},
  "deployedLinkReferences": {}
}